:100000000C94EA000C9412010C9412010C9412014D
:100010000C9412010C9412010C9412010C94120114
:100020000C9412010C9412010C94D3050C94450607
:100030000C9412010C9412010C9412010C941201F4
:100040000C9412010C9412010C9412010C941201E4
:100050000C9412010C9412010C9412010C94890559
:100060000C9412010C9412010C9412010C941201C4
:100070000C9412010C9412010C9412010C941201B4
:100080000C9412010C9412010C9412010C941201A4
:100090000C9412010C9412010C9412010C94120194
:1000A0000C9412010C9412010C941201AD01B001D8
:1000B0009F01A301A701D101D101D101B401B80170
:1000C000BC01C201C601D101CC010B021002150214
:1000D0001F02290273027302730233023D024702B8
:1000E00051025E0273026602080B00020202010066
:1000F000090400000102020000052400100105248B
:1001000001010104240206052406000107058103FC
:1001100010004009040100020A0000000705020265
:100120004000000705830240000004030904120197
:100130000002EF020140412341800001010203015E
:1001400041726475696E6F204C4C43004172647556
:10015000696E6F2059756E000000000200090F00E3
:1001600000030401000C000000000000000000007B
:100170000000000000000000000000250028002B07
:10018000002E00310000000000240027002A002D6E
:100190000030000404040404030405020202020403
:1001A0000302020202060606060606040402020212
:1001B0000404040802011040804010204080408068
:1001C00008020401804020100201108010204040ED
:1001D0002000750811241FBECFEFDAE0DEBFCDBFCF
:1001E00011E0A0E0B1E0ECECF5E102C005900D9269
:1001F000A632B107D9F721E0A6E2B1E001C01D9215
:10020000A93AB207E1F710E0CAEED0E004C02197A6
:10021000FE010E94D90AC93ED107C9F70E94D6083B
:100220000C94E40A0C94000090E0FC01EE54FE4FA4
:100230002491FC01ED56FE4F8491882399F090E0C3
:10024000880F991FFC01EB57FE4FA591B491FC015B
:10025000E958FE4F859194918FB7F894EC91E22B79
:10026000EC938FBF0895FC0180914401811103C07C
:100270008FEF9FEF08959FB7F89482E08093E90095
:100280002091F20030E01216130614F421E030E061
:100290002115310559F0289884E680934301809117
:1002A000F10080838091F200882319F09FBFC9017B
:1002B00008958BE68093E800F9CF2FB7F89483E098
:1002C0008093E9009091E800892F807295FF04C027
:1002D0009091F20080E4891B2FBF089580913B012B
:1002E00081110DC082E08093370184E08093380152
:1002F00010923A011092390181E080933B0187E32B
:1003000091E00895362F90E0FC01E85AFE4F4491A9
:10031000FC01EE54FE4F2491FC01ED56FE4F8491FA
:10032000882309F451C04423E1F150E0FA013197E8
:10033000EF30F105B0F5EA5AFF4F0C94D90A9091CD
:1003400080009F7707C0909180009F7D03C09091AF
:100350008000977F9093800024C094B59F7702C05F
:1003600094B59F7D94BD1DC0909190009F7707C06C
:10037000909190009F7D03C090919000977F909303
:1003800090000FC09091C0009F7703C09091C00073
:100390009F7D9093C00005C09091C200977F90937D
:1003A000C200E82FF0E0EE0FFF1FE958FE4FA591C5
:1003B000B4918FB7F894EC91311103C020952E239E
:1003C00001C02E2B2C938FBF08951F93CF93DF93E3
:1003D000182FEB010E941401209711F460E004C073
:1003E000CF3FD10539F461E0812FDF91CF911F918B
:1003F0000C948201E12FF0E0E85AFE4FE4914E2F79
:1004000050E0FA013197EF30F10508F06CC0EB597C
:10041000FF4F0C94D90A84B5806884BDC7BD68C0FD
:1004200084B5806284BDC8BD63C08091800080684F
:1004300080938000D0938900C093880059C0809138
:100440008000806280938000D0938B00C0938A00EC
:100450004FC080918000886080938000D0938D0091
:10046000C0938C0045C0809190008068809390007C
:10047000D0939900C09398003BC080919000806217
:1004800080939000D0939B00C0939A0031C08091DC
:100490009000886080939000D0939D00C0939C0052
:1004A00027C08091C00080688093C0008091C00008
:1004B0008F7B8093C000C093CF001AC08091C00092
:1004C00080628093C000C093D00012C08091C200AF
:1004D00088608093C2008091C2008B7F8093C200AD
:1004E000C093D20005C0C038D1050CF07CCF76CFC8
:1004F000DF91CF911F9108953FB7F8948091330118
:1005000090913401A0913501B091360126B5A89B98
:1005100005C02F3F19F00196A11DB11D3FBFBA2F95
:10052000A92F982F8827820F911DA11DB11DBC01F5
:10053000CD0142E0660F771F881F991F4A95D1F7BA
:1005400008958F929F92AF92BF92CF92DF92EF92D7
:10055000FF926B017C010E947C024B015C01C11483
:10056000D104E104F104F1F00E947C02DC01CB0132
:1005700088199909AA09BB09883E9340A105B105CC
:1005800070F321E0C21AD108E108F10888EE880E64
:1005900083E0981EA11CB11CC114D104E104F10434
:1005A00019F7DDCFFF90EF90DF90CF90BF90AF9025
:1005B0009F908F900895409128015091290120919A
:1005C00026013091270142175307B4F49091E800B7
:1005D0009570E1F39091E80092FD19C08093F100CD
:1005E000809128019091290101968F739927892B79
:1005F00019F48EEF8093E8008091280190912901F1
:100600000196909329018093280181E0089580E06C
:100610000895CF92DF92EF92FF920F931F93CF93A3
:10062000DF931F92CDB7DEB7182F062FE42E862F4B
:10063000880F8E5F99830E94DB0283E00E94DB02B9
:10064000F12EC12E9981D92E8C2D8F19801798F4F7
:10065000F601E7FE02C0849101C080810E94DB02A6
:10066000182F80E00E94DB028123FFEFCF1ADF0A00
:100670008111EACF01C081E00F90DF91CF911F91EE
:100680000F91FF90EF90DF90CF900895DF92EF925F
:10069000FF920F931F93CF93DF93D82E8A017B0194
:1006A000E40EF51EEB01CE15DF0571F0D7FE03C099
:1006B000FE01849101C088810E94DB022196811194
:1006C000F2CF8FEF9FEF01C0C801DF91CF911F9153
:1006D0000F91FF90EF90DF9008950F931F93CF93AA
:1006E000DF931F92CDB7DEB782E0898342E450E00A
:1006F00068EE70E080E80E9446030E946E01DC0113
:1007000012960D911C9113970115110569F0D801EE
:10071000ED91FC910280F381E02DBE016F5F7F4F70
:10072000C801099597FF07C089810F90DF91CF918C
:100730001F910F910895F80100851185E5CF615053
:1007400030F02091F100FC0120830196F8CF289829
:1007500084E6809343010895CF92DF92EF92FF9257
:100760000F931F93CF93DF936C017A018B01C0E04D
:10077000D0E0CE15DF0589F0D8016D918D01D6014D
:10078000ED91FC910190F081E02DC6010995892B36
:1007900011F47E0102C02196ECCFC701DF91CF9109
:1007A0001F910F91FF90EF90DF90CF9008958F925F
:1007B0009F92AF92BF92CF92DF92EF92FF920F93F0
:1007C0001F93CF93DF935C016B017A0180910B0142
:1007D000882309F45BC080914401882309F456C042
:1007E00080912C0180FF05C08091E00082608093A1
:1007F000E000E70110E00AEF83E0882E9AE3992EEB
:100800002097D9F10E945D0181110AC0015009F4BD
:100810003DC061E070E080E090E00E94A102F0CF76
:10082000282F30E0C217D3070CF48C2F4FB7F89461
:100830008092E9009091E80095FF1DC0282F30E0DC
:10084000C21BD30BF601982F915020F08191809319
:10085000F100FACFC20ED31E112319F09092E800D6
:1008600009C08091E80085FD06C09092E80011E083
:10087000209709F010E04FBFC3CF1111C3CF5D988F
:1008800084E680932D011E141F0444F081E090E063
:10089000F5019383828380E090E001C0C701DF917E
:1008A000CF911F910F91FF90EF90DF90CF90BF906D
:1008B000AF909F908F900895CF93DF931F92CDB705
:1008C000DEB76983DC01ED91FC910280F381E02DBC
:1008D00041E050E0BE016F5F7F4F09950F90DF91BF
:1008E000CF91089583E08093E9008091F2008823FE
:1008F00019F08AE38093E80008950E945D0190E07A
:100900000895CF93DF931F92CDB7DEB7FC018485A6
:10091000958597FD05C02FEF3FEF358724870BC0E6
:10092000CE0101960E943301019719F4898190E06C
:1009300002C08FEF9FEF0F90DF91CF9108950F933B
:100940001F93CF93DF931F92CDB7DEB78C01FC01CD
:100950008485958597FF0EC0CE0101960E943301D4
:10096000019719F4298130E002C02FEF3FEFF80121
:1009700035872487F801848595850F90DF91CF9185
:100980001F910F910895FC018485958597FD0BC0FB
:100990009FB7F89482E08093E9008091F2009FBFB6
:1009A00090E0019608959FB7F89482E08093E90063
:1009B0008091F2009FBF90E00895089580E090E05C
:1009C0000895CF93DF93EC0161E088810E9482015A
:1009D00061E08A810E94820160E070E08C81DF9199
:1009E000CF910C94E501EF92FF920F931F93CF9359
:1009F000DF93EC017B0161E088850E9482018E819A
:100A00009F81E89E8001E99E100DF89E100D112433
:100A100017FD0AC061E088810E94820160E08A813E
:100A20000E948201B8010CC060E088810E948201AE
:100A300061E08A810E94820166277727601B710B23
:100A40008C81DF91CF911F910F91FF90EF900C94CB
:100A5000E5018F929F92AF92BF920F931F93CF9316
:100A6000DF93CDB7DEB7A1970FB6F894DEBF0FBE08
:100A7000CDBF19A2423008F44AE08E010F5D1F4F2E
:100A8000842E912CA12CB12CA50194010E94B70AAF
:100A9000E62FB901CA0101501109EA3014F4E05DF2
:100AA00001C0E95CD801EC93232B242B252B61F7A3
:100AB00001151105A1F0F80101900020E9F7319727
:100AC000AF01401B510BE0914501F09146010280BE
:100AD000F381E02DB80185E491E0099502C080E042
:100AE00090E0A1960FB6F894DEBF0FBECDBFDF91A8
:100AF000CF911F910F91BF90AF909F908F900895CD
:100B00004AE06AE070E280E090E00C9429050E94DF
:100B1000DF0A1F920F920FB60F9211242F933F936B
:100B20008F939F93AF93BF9380912F01909130014A
:100B3000A0913101B091320130912E0123E0230FB9
:100B40002D3720F40196A11DB11D05C026E8230F05
:100B50000296A11DB11D20932E0180932F01909329
:100B60003001A0933101B093320180913301909113
:100B70003401A0913501B09136010196A11DB11D3E
:100B80008093330190933401A0933501B0933601E3
:100B9000BF91AF919F918F913F912F910F900FBE79
:100BA0000F901F9018951F920F920FB60F9211245D
:100BB0008F939F938091E1009091E100937F9093B8
:100BC000E10083FF0FC01092E90091E09093EB00E9
:100BD0001092EC0092E39093ED001092440198E0A3
:100BE0009093F00082FF20C093E09093E9009091F1
:100BF000F200992319F09AE39093E80090912D0167
:100C0000992339F090912D01915090932D019923C2
:100C100089F190914301992339F0909143019150CA
:100C200090934301992341F184FF10C08091E20029
:100C30008E7E81608093E2008091E1008F7E8093C0
:100C4000E10080912C018E7E806111C080FF16C072
:100C50008091E2008E7E80618093E2008091E100CD
:100C60008E7E8093E10080912C018E7E8160809346
:100C70002C0104C05D9ACDCF289AD6CF9F918F9139
:100C80000F900FBE0F901F9018951F920F920FB6E6
:100C90000F921124CF92DF92EF92FF920F931F9346
:100CA0002F933F934F935F936F937F938F939F9374
:100CB000AF93BF93EF93FF93CF93DF93CDB7DEB79F
:100CC0006C97DEBFCDBF1092E9008091E80083FFF2
:100CD000EDC168E0CE0145960E949F0382EF8093AC
:100CE000E8008D8987FF05C09091E80090FFFCCF58
:100CF00003C09EEF9093E800982F907609F0C6C04D
:100D00009E892F89188D91110CC0803829F480910B
:100D10002B018093F10002C01092F1001092F100BB
:100D200048C1422F50E0512B913051F4811141C103
:100D30004130510509F03DC180912B018D7F0BC0E1
:100D4000933061F4811135C14130510509F031C151
:100D500080912B01826080932B012BC1953041F44F
:100D60008091E80080FFFCCF20682093E30021C140
:100D7000963009F05FC0EB8CFC8C1092E900109269
:100D8000290110922801123091F51092270110923A
:100D900026010E946D0399E0BE016F5F7F4FDB016A
:100DA000E92F1D92EA95E9F799831A8391E09E83D2
:100DB00090EA98879AEF998720912801309129012C
:100DC000275F3F4F3C832B838D831092E900109265
:100DD000290110922801F0922701E092260149E0B2
:100DE00050E080E00E9446030E946D03E2C0F09252
:100DF0002701E09226010E946E01DC011296ED901F
:100E0000FC901397E114F10409F4C0C0D701ED91EF
:100E1000FC910480F581E02DBE016B5E7F4FC70120
:100E20000995009719F00CF0C4C0C7C0F701E08421
:100E3000F184E8CF973009F4C0C0983021F481E004
:100E40008093F100B6C0993009F0B3C0837009F007
:100E5000B4C0EDE0F1E081E021E036E39081992338
:100E600061F08093E9002093EB0091919093EC0066
:100E70003093ED008F5F873089F78EE78093EA002B
:100E80001092EA008F898093440193C08B8D9C8DD2
:100E90001092E900109229011092280190932701E5
:100EA00080932601898D811156C08E899D89913A42
:100EB00059F4813209F081C047E050E064E071E00C
:100EC00080E00E94460375C0913209F076C08332FB
:100ED00089F4888D90E0982F88272F89822BA0E0B5
:100EE000B0E08093000190930101A0930201B093C0
:100EF00003015FC0803269F48091E80082FFFCCF7B
:100F000067E084E091E00E949F038BEF8093E8000C
:100F100006C0823209F04DC08F8980930B01809109
:100F20002A01882319F0EEEFFAE002C0E0E0F8E0D1
:100F30008091040190910501A0910601B0910701F3
:100F4000803B9440A105B10509F07BC080910B0165
:100F500080FF93C076C00E946E01DC0112960D9155
:100F60001C9113970115110541F1D801ED91FC91E8
:100F70000190F081E02DBE016B5E7F4FC8010995A5
:100F8000811117C0F80100851185ECCF113009F4EB
:100F90004EC0133091F48F89882309F445C0823004
:100FA00081F440E86BE08CE491E00E94090388231F
:100FB00021F08EEF8093E80079C081E28093EB000E
:100FC00075C0813029F440E86BE080E491E0EDCF1A
:100FD000833099F70E946E01DC011296ED90FC902F
:100FE00013978E010F5F1F4F6801E114F10479F030
:100FF000D701ED91FC910680F781E02DB801C70182
:101000000995080F111DF701E084F184EECFD80196
:101010001C92F60101900020E9F73197BF016C198D
:101020007D0940E0C601C1CF6AE271E002C06EE214
:1010300071E06115710509F2FB01449150E080E80F
:1010400040CF0FB6F894A895809160008861809396
:101050006000109260000FBEA895EE3F2AE0F207F4
:1010600039F08091FE0A9091FF0A91838083A1CF8D
:101070001092FF0A1092FE0A9CCFEE3F8AE0F8071A
:1010800031F0808191819093FF0A8093FE0A87E777
:1010900097E7918380839BE088E10FB6F894A89549
:1010A000809360000FBE9093600083CF6C960FB664
:1010B000F894DEBF0FBECDBFDF91CF91FF91EF91CE
:1010C000BF91AF919F918F917F916F915F914F9160
:1010D0003F912F911F910F91FF90EF90DF90CF9054
:1010E0000F900FBE0F901F901895EF92FF920F93E5
:1010F0001F93CF93DF93E5E4F1E01382128288EE31
:1011000093E0A0E0B0E084839583A683B78387E172
:1011100091E0918380838FEF9FEF95878487CFE95C
:10112000D1E084E090E09983888383E090E09B8322
:101130008A8382E090E09D838C8385E0E82EF12C09
:10114000F986E88601E010E01F830E8384E00E94A8
:1011500014018A810E9414018C810E9414018885E7
:101160000E941401C5E9D1E086E090E0998388836C
:1011700087E090E09B838A8388E090E09D838C8366
:10118000F986E8861F830E8386E00E9414018A8117
:101190000E9414018C810E9414018885DF91CF91F7
:1011A0001F910F91FF90EF900C941401CF93DF9358
:1011B000CDB7DEB7C857D1090FB6F894DEBF0FBE62
:1011C000CDBF789484B5826084BD84B5816084BDD0
:1011D00085B5826085BD85B5816085BD80916E00D5
:1011E000816080936E001092810080918100826006
:1011F0008093810080918100816080938100809143
:101200008000816080938000809191008260809353
:101210009100809191008160809391008091900075
:101220008160809390008091C10084608093C100B0
:101230008091C10082608093C1008091C100816073
:101240008093C1008091C30081608093C30080912E
:10125000C00082608093C0008091C2008160809352
:10126000C20080917A00846080937A0080917A0035
:10127000826080937A0080917A00816080937A0006
:1012800080917A00806880937A00109244011092D5
:101290002B0110922C018091D70081608093D700A0
:1012A00080EA8093D80089B5806189BD89B5826064
:1012B00089BD09B400FEFDCF61E070E080E090E000
:1012C0000E94A1028091D8008F7C80618093D80019
:1012D0008091E000807F8093E0008091E1008E7E2D
:1012E0008093E1008DE08093E200559A209AEEEF22
:1012F000FFE7859194918B3F9C4D19F481E0809399
:101300002A018FEF9FEF90935201809351011AE0D1
:1013100080E0E82E80E0F82E0E9480056FEF70E0FC
:101320008FE991E00E94F30468EE73E080E090E0C2
:101330000E94A10261E07FEF8FE991E00E94F30437
:1013400068EE73E080E090E00E94A1028FE991E0F6
:101350000E94E10468EE73E080E090E00E94A10248
:101360000E9480056FEF70E085E991E00E94F30430
:1013700068EE73E080E090E00E94A10261E07FEF00
:1013800085E991E00E94F30468EE73E080E090E06C
:101390000E94A10285E991E00E94E10468EE73E0F9
:1013A00080E090E00E94A1020E948005EFE9F1E058
:1013B000DE01A159BF4F812F01900D928A95E1F76F
:1013C000E5E9F1E0DE01AB59BF4F812F01900D92AD
:1013D0008A95E1F766E970E0CE0181599F4F0E943E
:1013E000F30466E970E0CE018B599F4F0E94F3042D
:1013F00068EE73E080E090E00E94A102EFE9F1E086
:10140000DE01A55ABF4F812F01900D928A95E1F719
:10141000E5E9F1E0DE01AF5ABF4F812F01900D9257
:101420008A95E1F76AE67FEFCE01855A9F4F0E94C9
:10143000F3046AE67FEFCE018F5A9F4F0E94F304B8
:1014400068EE73E080E090E00E94A102EFE9F1E035
:10145000DE01A95BBF4F812F01900D928A95E1F7C4
:10146000E5E9F1E0DE01DD96812F01900D928A958C
:10147000E1F7CE01895B9F4F0E94E104CE01CD963A
:101480000E94E10468EE73E080E090E00E94A10217
:10149000EFE9F1E0DE01D396812F01900D928A955C
:1014A000E1F7E5E9F1E0DE019996812F01900D92D7
:1014B0008A95E1F76EEC7FEFCE01C3960E94F304AC
:1014C00062E370E0CE0189960E94F30468EE73E057
:1014D00080E090E00E94A102EFE9F1E0DE015F967A
:1014E000812F01900D928A95E1F7E5E9F1E0DE01A7
:1014F0005596812F01900D928A95E1F762E370E095
:10150000CE014F960E94F3046EEC7FEFCE0145961C
:101510000E94F30468EE73E080E090E00E94A10274
:10152000EFE9F1E0DE011B96812F01900D928A9583
:10153000E1F7E5E9F1E0DE011196812F01900D92CE
:101540008A95E1F7CE010B960E94E104CE01019647
:101550000E94E10468EE73E080E090E00E94A10246
:10156000E114F10409F4D8CE0E940000D0CEA1E22B
:101570001A2EAA1BBB1BFD010DC0AA1FBB1FEE1F0D
:10158000FF1FA217B307E407F50720F0A21BB30B58
:10159000E40BF50B661F771F881F991F1A9469F7D4
:1015A00060957095809590959B01AC01BD01CF0130
:1015B0000895EE0FFF1F0590F491E02D099481E04E
:0C15C00090E0F8940C94E40AF894FFCF3B
:1015CC00FFFFFFFF00E100000000000000C1808170
:1015DC00000000000000005C04D7037D047204C30B
:0615EC000481049F0400CD
:00000001FF
