:100000000C9462000C948A000C948A000C948A0070
:100010000C948A000C948A000C948A000C948A0038
:100020000C948A000C948A000C948A000C948A0028
:100030000C948A000C948A000C948A000C948A0018
:100040000C94E9030C948A000C9459040C94330426
:100050000C948A000C948A000C948A000C948A00F8
:100060000C948A000C948A000000000024002700F1
:100070002A0000000000250028002B0000000000DE
:1000800023002600290004040404040404040202DA
:100090000202020203030303030301020408102007
:1000A0004080010204081020010204081020000012
:1000B0000008000201000003040700000000000027
:1000C00000008B0411241FBECFEFD8E0DEBFCDBFF0
:1000D00011E0A0E0B1E0E2E7FDE002C005900D9282
:1000E000AC32B107D9F721E0ACE2B1E001C01D921A
:1000F000AA3EB207E1F710E0C2E6D0E004C02197C3
:10010000FE010E94AC06C136D107C9F70E940C055A
:100110000C94B7060C940000833081F028F48130F1
:1001200099F08230A1F008958730A9F08830B9F0B5
:100130008430D1F4809180008F7D03C08091800055
:100140008F7780938000089584B58F7702C084B53F
:100150008F7D84BD08958091B0008F7703C080911A
:10016000B0008F7D8093B0000895CF93DF93282F48
:1001700030E0F901E255FF4F8491F901E656FF4F57
:10018000D491F901EA57FF4FC491CC2391F081112A
:100190000E948C00EC2FF0E0EE0FFF1FE458FF4FA1
:1001A000A591B491EC91ED2381E090E021F480E001
:1001B00002C080E090E0DF91CF9108951F93CF932C
:1001C000DF93282F30E0F901E255FF4F8491F901C8
:1001D000E656FF4FD491F901EA57FF4FC491CC2363
:1001E000C9F0162F81110E948C00EC2FF0E0EE0F69
:1001F000FF1FEE58FF4FA591B4918FB7F8941111DE
:1002000005C09C91ED2FE095E92302C0EC91ED2B08
:10021000EC938FBFDF91CF911F910895CF93DF9320
:1002200090E0FC01E656FF4F2491FC01EA57FF4F96
:100230008491882361F190E0880F991FFC01E859AF
:10024000FF4FC591D491FC01EE58FF4FA591B49199
:10025000611109C09FB7F894888120958223888313
:10026000EC912E230BC0623061F49FB7F894388173
:10027000822F809583238883EC912E2B2C939FBF14
:1002800006C08FB7F894E8812E2B28838FBFDF91AB
:10029000CF9108951F93CF93DF93182FEB0161E067
:1002A0000E940E01209711F460E004C0CF3FD105F9
:1002B00039F461E0812FDF91CF911F910C94DE0022
:1002C000E12FF0E0E255FF4FE491E330F9F048F41C
:1002D000E130B9F0E230A1F584B5806284BDC8BDDB
:1002E00034C0E730E9F0E83019F1E43049F58091A5
:1002F0008000806280938000D0938B00C0938A003E
:1003000024C084B5806884BDC7BD1FC080918000B3
:10031000806880938000D0938900C093880015C0C6
:100320008091B00080688093B000C093B3000DC08E
:100330008091B00080628093B000C093B40005C08B
:10034000C038D1050CF0B5CFAFCFDF91CF911F9161
:1003500008953FB7F8948091350190913601A091AE
:100360003701B091380126B5A89B05C02F3F19F081
:100370000196A11DB11D3FBFBA2FA92F982F882725
:10038000820F911DA11DB11DBC01CD0142E0660F80
:10039000771F881F991F4A95D1F708958F929F92D2
:1003A000AF92BF92CF92DF92EF92FF926B017C01EE
:1003B0000E94A9014B015C01C114D104E104F104C4
:1003C000F1F00E94A901DC01CB0188199909AA0961
:1003D000BB09883E9340A105B10570F321E0C21A24
:1003E000D108E108F10888EE880E83E0981EA11C70
:1003F000B11CC114D104E104F10419F7DDCFFF9061
:10040000EF90DF90CF90BF90AF909F908F90089526
:10041000CF92DF92EF92FF920F931F93CF93DF93D0
:100420006C017A018B01C0E0D0E0CE15DF0589F0C8
:10043000D8016D918D01D601ED91FC910190F08173
:10044000E02DC6010995892B11F47E0102C0219689
:10045000ECCFC701DF91CF911F910F91FF90EF90EB
:10046000DF90CF900895089580E090E00895FC011A
:10047000538D448D252F30E0842F90E0821B930B09
:10048000541710F0CF96089501970895FC01918DAF
:10049000828D981761F0828DDF01A80FB11D5D96E6
:1004A0008C91928D9F5F9F73928F90E008958FEF54
:1004B0009FEF0895FC01918D828D981731F0828D08
:1004C000E80FF11D858D90E008958FEF9FEF08955F
:1004D000FC01918D228D892F90E0805C9F4F821BC3
:1004E00091098F739927089589E391E00E9468022A
:1004F00021E0892B09F420E0822F0895FC01848DEE
:10050000DF01A80FB11DA35ABF4F2C91848D90E03D
:1005100001968F739927848FA689B7892C93A08918
:10052000B1898C9180648C93938D848D981306C0CF
:100530000288F389E02D80818F7D80830895EF927A
:10054000FF920F931F93CF93DF93EC0181E0888F8D
:100550009B8D8C8D981305C0E889F989808185FD74
:1005600024C0F62E0B8D10E00F5F1F4F0F73112765
:10057000E02E8C8DE8120CC00FB607FCFACFE8898C
:10058000F989808185FFF5CFCE010E947E02F1CFEF
:100590008B8DFE01E80FF11DE35AFF4FF0820B8FA8
:1005A000EA89FB898081806207C0EE89FF896083C8
:1005B000E889F98980818064808381E090E0DF911F
:1005C000CF911F910F91FF90EF900895CF93DF93FC
:1005D000EC01888D8823C9F0EA89FB89808185FD3B
:1005E00005C0A889B9898C9186FD0FC00FB607FC9C
:1005F000F5CF808185FFF2CFA889B9898C9185FFDD
:10060000EDCFCE010E947E02E7CFDF91CF9108951A
:1006100080E090E0892B29F00E94740281110C94F3
:1006200000000895CF93DF93EC0161E088810E9480
:10063000DE0061E08A810E94DE0060E070E08C8173
:10064000DF91CF910C944A01EF92FF920F931F9389
:10065000CF93DF93EC017B0161E088850E94DE008F
:100660008E819F81E89E8001E99E100DF89E100DFD
:10067000112417FD0AC061E088810E94DE0060E05D
:100680008A810E94DE00B8010CC060E088810E946F
:10069000DE0061E08A810E94DE0066277727601B0A
:1006A000710B8C81DF91CF911F910F91FF90EF9093
:1006B0000C944A01009769F0FC0101900020E9F7D1
:1006C0003197AF01481B590BBC0189E391E00C94B1
:1006D000080280E090E008958F929F92AF92BF92BF
:1006E000CF92DF92EF92FF920F931F93CF93DF93FE
:1006F000CDB7DEB7A1970FB6F894DEBF0FBECDBF62
:100700006C01990FEE08FF08F7FE31C0E091390146
:10071000F0913A010190F081E02D6DE289E391E0E2
:1007200009958C0122273327A9012C193D094E096F
:100730005F0919A2CE0181967C019AE0892E912C45
:10074000A12CB12CCA01B901A50194010E948A060D
:10075000605DF70162937F01211531054105510567
:1007600089F7CF010E945A03800F911F1DC0A70176
:10077000960119A28E010F5D1F4F8AE0C82ED12C61
:10078000E12CF12CCA01B901A70196010E948A0649
:10079000605DF80162938F01211531054105510516
:1007A00089F7CF010E945A03A1960FB6F894DEBFD5
:1007B0000FBECDBFDF91CF911F910F91FF90EF90B2
:1007C000DF90CF90BF90AF909F908F9008950E9440
:1007D000B2061F920F920FB60F9211242F933F93E0
:1007E0008F939F93AF93BF9380913101909132018A
:1007F000A0913301B09134013091300123E0230FF7
:100800002D3720F40196A11DB11D05C026E8230F48
:100810000296A11DB11D2093300180933101909368
:100820003201A0933301B09334018091350190914E
:100830003601A0913701B09138010196A11DB11D7B
:100840008093350190933601A0933701B09338011E
:10085000BF91AF919F918F913F912F910F900FBEBC
:100860000F901F9018951F920F920FB60F921124A0
:100870002F933F934F935F936F937F938F939F93A8
:10088000AF93BF93EF93FF9389E391E00E947E02C1
:10089000FF91EF91BF91AF919F918F917F916F9158
:1008A0005F914F913F912F910F900FBE0F901F902E
:1008B00018951F920F920FB60F9211242F938F93BA
:1008C0009F93EF93FF93E0914901F0914A0180815A
:1008D000E0914F01F091500182FD12C09081809112
:1008E00052018F5F8F7320915301821751F0E09175
:1008F0005201F0E0E75CFE4F958F8093520101C0FA
:100900008081FF91EF919F918F912F910F900FBE5A
:100910000F901F901895EF92FF920F931F93CF9314
:10092000DF93E9E3F1E01382128288EE93E0A0E026
:10093000B0E084839583A683B78384E091E09183BC
:10094000808385EC90E09587848784EC90E097879E
:10095000868780EC90E0918B808B81EC90E0938B8C
:10096000828B82EC90E0958B848B86EC90E0978B69
:10097000868B118E128E138E148EC0EED1E08BE01A
:1009800090E0998388838CE090E09B838A8385E064
:1009900090E09D838C838AE0E82EF12CF986E8862E
:1009A00001E010E01F830E8361E08BE00E940E01E6
:1009B00061E08A810E940E0161E08C810E940E013B
:1009C00061E088850E940E01C6EDD1E089E090E0EB
:1009D0009983888388E090E09B838A8383E090E01A
:1009E0009D838C83F986E8861F830E8361E089E00E
:1009F0000E940E0161E08A810E940E0161E08C81FB
:100A00000E940E0161E08885DF91CF911F910F91C7
:100A1000FF90EF900C940E01CF93DF93CDB7DEB72C
:100A2000C456D1090FB6F894DEBF0FBECDBF78947F
:100A300084B5826084BD84B5816084BD85B58260E3
:100A400085BD85B5816085BD80916E008160809394
:100A50006E001092810080918100826080938100FD
:100A6000809181008160809381008091800081600D
:100A7000809380008091B10084608093B100809168
:100A8000B00081608093B00080917A008460809390
:100A90007A0080917A00826080937A0080917A0057
:100AA000816080937A0080917A00806880937A00D8
:100AB0001092C100E0914901F0914A0182E08083E7
:100AC000E0914501F09146011082E0914701F091DB
:100AD00048018FEC808310925101E0914D01F0911B
:100AE0004E0186E08083E0914B01F0914C018081C2
:100AF00080618083E0914B01F0914C01808188609E
:100B00008083E0914B01F0914C018081806880836B
:100B1000E0914B01F0914C0180818F7D808360E0FA
:100B200087E00E940E0160E086E00E940E0168E806
:100B300073E180E090E00E94CE011AE087E00E941D
:100B4000B5000E946C0389E291E00E945A0386E09E
:100B50000E94B5000E946C0389E291E00E945A0352
:100B600087E00E94B5007C0190932F0180932E01B5
:100B700086E00E94B50090932D0180932C01EA94A9
:100B8000EF2819F4019709F4A0C0E6EDF1E0DE01C9
:100B9000A55ABF4F812F01900D928A95E1F7E0EEA3
:100BA000F1E0DE01AF5ABF4F812F01900D928A957F
:100BB000E1F7CE01855A9F4F0E941203CE018F5A52
:100BC0009F4F0E94120382E191E00E945A03E6EDDA
:100BD000F1E0DE01A95BBF4F812F01900D928A9554
:100BE000E1F7E0EEF1E0DE01DD96812F01900D925C
:100BF0008A95E1F761E07FEFCE01895B9F4F0E940C
:100C0000240361E07FEFCE01CD960E94240364EFC0
:100C100071E080E090E00E94CE0180912C019091E3
:100C20002D0120912E0130912F012130310509F144
:100C300089E191E00E945A03E6EDF1E0DE01D396EE
:100C4000812F01900D928A95E1F7E0EEF1E0DE014F
:100C50009996812F01900D928A95E1F761E07FEFDF
:100C6000CE01C3960E9424036FEF70E0CE018996F7
:100C700023C0019709F44BC089E191E00E945A0317
:100C8000E6EDF1E0DE015F96812F01900D928A95ED
:100C9000E1F7E0EEF1E0DE015596812F01900D9233
:100CA0008A95E1F76FEF70E0CE014F960E94240322
:100CB00061E07FEFCE0145960E94240360E971E078
:100CC00080E090E00E94CE0122C081E291E00E948B
:100CD0005A03E6EDF1E0DE011B96812F01900D92A3
:100CE0008A95E1F7E0EEF1E0DE011196812F0190A7
:100CF0000D928A95E1F76FEF70E0CE010B960E949E
:100D000024036FEF70E0CE0101960E9424030E943D
:100D1000080314CFA1E21A2EAA1BBB1BFD010DC0B4
:100D2000AA1FBB1FEE1FFF1FA217B307E407F5079B
:100D300020F0A21BB30BE40BF50B661F771F881F77
:100D4000991F1A9469F760957095809590959B010D
:100D5000AC01BD01CF010895EE0FFF1F0590F49186
:100D6000E02D099481E090E0F8940C94B706F89493
:020D7000FFCFB3
:100D7200000000009F0208023702E60268024602F3
:100D82005A024241434B200A005374656572200A9D
:0C0D920000464F5257415244200A000016
:00000001FF
