:100000000C945D000C9485000C9485000C94850084
:100010000C9485000C9485000C9485000C9485004C
:100020000C9485000C9485000C9485000C9485003C
:100030000C9485000C9485000C9485000C9485002C
:100040000C9403030C9485000C9473030C944D03DF
:100050000C9485000C9485000C9485000C9485000C
:100060000C9485000C94850000000008000201003B
:100070000003040700000000000000000000000072
:10008000250028002B0000000000240027002A0083
:10009000040404040404040402020202020203032E
:1000A0000303030301020408102040800102040836
:1000B0001020010204081020A50311241FBECFEF59
:1000C000D8E0DEBFCDBF11E0A0E0B1E0ECEEF9E09A
:1000D00002C005900D92AA31B107D9F721E0AAE13B
:1000E000B1E001C01D92A43DB207E1F710E0CDE5FB
:1000F000D0E004C02197FE010E94E904CC35D1076D
:10010000C9F70E941E040C94F4040C94000090E0C3
:10011000FC01EC55FF4F2491FC01E057FF4F849107
:10012000882399F090E0880F991FFC01EA57FF4F50
:10013000A591B491FC01E458FF4F859194918FB73C
:10014000F894EC91E22BEC938FBF089590E0FC01C2
:10015000E859FF4F3491FC01EC55FF4F2491FC010D
:10016000E057FF4FE491EE2309F43BC0332339F10C
:10017000333091F038F43130A9F0323001F584B5E4
:100180008F7D12C0373091F03830A1F03430B9F49F
:10019000809180008F7D03C0809180008F77809355
:1001A00080000DC084B58F7784BD09C08091B000F8
:1001B0008F7703C08091B0008F7D8093B000F0E016
:1001C000EE0FFF1FE458FF4FA591B4918FB7F8943D
:1001D000EC91611103C020952E2301C02E2B2C938E
:1001E0008FBF08951F93CF93DF93182FEB010E94C9
:1001F0008700209711F460E004C0CF3FD10539F4A7
:1002000061E0812FDF91CF911F910C94A600E12F27
:10021000F0E0E859FF4FE491E330F9F048F4E130C1
:10022000B9F0E230A1F584B5806284BDC8BD34C0A8
:10023000E730E9F0E83019F1E43049F580918000C9
:10024000806280938000D0938B00C0938A0024C08A
:1002500084B5806884BDC7BD1FC080918000806860
:1002600080938000D0938900C093880015C080914E
:10027000B00080688093B000C093B3000DC080913F
:10028000B00080628093B000C093B40005C0C03855
:10029000D1050CF0B5CFAFCFDF91CF911F9108956D
:1002A0003FB7F89480911F0190912001A091210106
:1002B000B091220126B5A89B05C02F3F19F00196E9
:1002C000A11DB11D3FBFBA2FA92F982F8827820FDC
:1002D000911DA11DB11DBC01CD0142E0660F771F2C
:1002E000881F991F4A95D1F708958F929F92AF92D8
:1002F000BF92CF92DF92EF92FF926B017C010E943E
:1003000050014B015C01C114D104E104F104F1F08E
:100310000E945001DC01CB0188199909AA09BB0987
:10032000883E9340A105B10570F321E0C21AD108BF
:10033000E108F10888EE880E83E0981EA11CB11C2C
:10034000C114D104E104F10419F7DDCFFF90EF905F
:10035000DF90CF90BF90AF909F908F900895CF92F5
:10036000DF92EF92FF920F931F93CF93DF936C0175
:100370007A018B01C0E0D0E0CE15DF0589F0D8010D
:100380006D918D01D601ED91FC910190F081E02DF0
:10039000C6010995892B11F47E0102C02196ECCF8C
:1003A000C701DF91CF911F910F91FF90EF90DF90E8
:1003B000CF900895089580E090E00895FC01538D5A
:1003C000448D252F30E0842F90E0821B930B54172F
:1003D00010F0CF96089501970895FC01918D828DBC
:1003E000981761F0828DDF01A80FB11D5D968C9189
:1003F000928D9F5F9F73928F90E008958FEF9FEF94
:100400000895FC01918D828D981731F0828DE80F4F
:10041000F11D858D90E008958FEF9FEF0895FC0109
:10042000918D228D892F90E0805C9F4F821B9109D6
:100430008F739927089583E291E00E940F0221E0D3
:10044000892B09F420E0822F0895FC01848DDF01BF
:10045000A80FB11DA35ABF4F2C91848D90E0019637
:100460008F739927848FA689B7892C93A089B18926
:100470008C9180648C93938D848D981306C0028830
:10048000F389E02D80818F7D80830895EF92FF9224
:100490000F931F93CF93DF93EC0181E0888F9B8DA7
:1004A0008C8D981305C0E889F989808185FD24C069
:1004B000F62E0B8D10E00F5F1F4F0F731127E02EEC
:1004C0008C8DE8120CC00FB607FCFACFE889F989C9
:1004D000808185FFF5CFCE010E942502F1CF8B8D63
:1004E000FE01E80FF11DE35AFF4FF0820B8FEA89FE
:1004F000FB898081806207C0EE89FF896083E8897B
:10050000F98980818064808381E090E0DF91CF91E0
:100510001F910F91FF90EF900895CF93DF93EC011F
:10052000888D8823C9F0EA89FB89808185FD05C013
:10053000A889B9898C9186FD0FC00FB607FCF5CF4D
:10054000808185FFF2CFA889B9898C9185FFEDCF95
:10055000CE010E942502E7CFDF91CF91089580E080
:1005600090E0892B29F00E941B0281110C9400005D
:100570000895EF92FF920F931F93CF93DF93EC01B7
:100580007B0161E088850E94A6008E819F81E89EA4
:100590008001E99E100DF89E100D112417FD0AC070
:1005A00061E088810E94A60060E08A810E94A60026
:1005B000B8010CC060E088810E94A60061E08A81D9
:1005C0000E94A60066277727601B710B8C81DF9144
:1005D000CF911F910F91FF90EF900C94F200009734
:1005E00069F0FC0101900020E9F73197AF01481B49
:1005F000590BBC0183E291E00C94AF0180E090E0E4
:1006000008950E94EF041F920F920FB60F921124CB
:100610002F933F938F939F93AF93BF9380911B0131
:1006200090911C01A0911D01B0911E0130911A0101
:1006300023E0230F2D3720F40196A11DB11D05C025
:1006400026E8230F0296A11DB11D20931A01809365
:100650001B0190931C01A0931D01B0931E0180917A
:100660001F0190912001A0912101B09122010196DA
:10067000A11DB11D80931F0190932001A093210122
:10068000B0932201BF91AF919F918F913F912F9194
:100690000F900FBE0F901F9018951F920F920FB6DC
:1006A0000F9211242F933F934F935F936F937F93F8
:1006B0008F939F93AF93BF93EF93FF9383E291E068
:1006C0000E942502FF91EF91BF91AF919F918F9171
:1006D0007F916F915F914F913F912F910F900FBE3E
:1006E0000F901F9018951F920F920FB60F92112422
:1006F0002F938F939F93EF93FF93E0913301F091AA
:1007000034018081E0913901F0913A0182FD12C0FB
:10071000908180913C018F5F8F7320913D01821702
:1007200051F0E0913C01F0E0ED5DFE4F958F80933C
:100730003C0101C08081FF91EF919F918F912F919A
:100740000F900FBE0F901F901895EF92FF920F938E
:100750001F93CF93DF93E3E2F1E01382128288EEDE
:1007600093E0A0E0B0E084839583A683B78384E020
:1007700091E09183808385EC90E09587848784EC79
:1007800090E09787868780EC90E0918B808B81EC5E
:1007900090E0938B828B82EC90E0958B848B86EC3F
:1007A00090E0978B868B118E128E138E148ECAEC6E
:1007B000D1E084E090E09983888383E090E09B839C
:1007C0008A8382E090E09D838C8385E0E82EF12C83
:1007D000F986E88601E010E01F830E8384E00E9422
:1007E00087008A810E9487008C810E94870088850B
:1007F0000E948700C0ECD1E086E090E09983888376
:1008000087E090E09B838A8388E090E09D838C83DF
:10081000F986E8861F830E8386E00E9487008A811E
:100820000E9487008C810E9487008885DF91CF918C
:100830001F910F91FF90EF900C948700CF93DF935F
:10084000CDB7DEB7E5970FB6F894DEBF0FBECDBFCC
:10085000789484B5826084BD84B5816084BD85B59B
:10086000826085BD85B5816085BD80916E008160A7
:1008700080936E001092810080918100826080934D
:10088000810080918100816080938100809180004F
:100890008160809380008091B10084608093B1007A
:1008A0008091B00081608093B00080917A00846074
:1008B00080937A0080917A00826080937A008091A0
:1008C0007A00816080937A0080917A0080688093BA
:1008D0007A001092C100E0913301F091340182E07E
:1008E0008083E0912F01F09130011082E09131017D
:1008F000F09132018FEC808310923B01E09137013F
:10090000F091380186E08083E0913501F091360165
:10091000808180618083E0913501F0913601808192
:1009200088608083E0913501F09136018081806894
:100930008083E0913501F091360180818F7D808345
:1009400000E31AE019A208A3CE0180960E94EF02EC
:1009500087E191E00E94EF0282E191E00E94EF02C4
:10096000E0ECF1E0DE019C96812F01900D928A95DA
:10097000E1F7EAECF1E0DE019296812F01900D9211
:100980008A95E1F761E07FEFCE018C960E94B90273
:1009900061E07FEFCE0182960E94B90260ED77E0C0
:1009A00080E090E00E9475016FEF70E08AEC91E0CA
:1009B0000E94B90260ED77E080E090E00E9475014E
:1009C00068EC70E080E090E00E9475010E94AF0248
:1009D000B9CFEE0FFF1F0590F491E02D099481E04F
:0C09E00090E0F8940C94F404F894FFCF1D
:1009EC00000000004602AF01DE018D020F02ED0196
:0A09FC0001024241434B200A0000B3
:00000001FF
